{
  "_format": "hh-sol-artifact-1",
  "contractName": "WavePortal",
  "sourceName": "contracts/WavePortal.sol",
  "abi": [
    {
      "inputs": [],
      "stateMutability": "payable",
      "type": "constructor"
    },
    {
      "anonymous": false,
      "inputs": [
        {
          "indexed": true,
          "internalType": "address",
          "name": "from",
          "type": "address"
        },
        {
          "indexed": false,
          "internalType": "string",
          "name": "message",
          "type": "string"
        },
        {
          "indexed": false,
          "internalType": "uint256",
          "name": "timestamp",
          "type": "uint256"
        }
      ],
      "name": "NewWave",
      "type": "event"
    },
    {
      "inputs": [],
      "name": "getAllWaves",
      "outputs": [
        {
          "components": [
            {
              "internalType": "address",
              "name": "waver",
              "type": "address"
            },
            {
              "internalType": "string",
              "name": "message",
              "type": "string"
            },
            {
              "internalType": "uint256",
              "name": "timestamp",
              "type": "uint256"
            }
          ],
          "internalType": "struct WavePortal.Wave[]",
          "name": "",
          "type": "tuple[]"
        }
      ],
      "stateMutability": "view",
      "type": "function"
    },
    {
      "inputs": [],
      "name": "getTotalWaves",
      "outputs": [
        {
          "internalType": "uint256",
          "name": "",
          "type": "uint256"
        }
      ],
      "stateMutability": "view",
      "type": "function"
    },
    {
      "inputs": [
        {
          "internalType": "address",
          "name": "",
          "type": "address"
        }
      ],
      "name": "lastWavedAt",
      "outputs": [
        {
          "internalType": "uint256",
          "name": "",
          "type": "uint256"
        }
      ],
      "stateMutability": "view",
      "type": "function"
    },
    {
      "inputs": [
        {
          "internalType": "string",
          "name": "_message",
          "type": "string"
        }
      ],
      "name": "wave",
      "outputs": [],
      "stateMutability": "nonpayable",
      "type": "function"
    },
    {
      "inputs": [
        {
          "internalType": "uint256",
          "name": "",
          "type": "uint256"
        }
      ],
      "name": "wavedAddresses",
      "outputs": [
        {
          "internalType": "address",
          "name": "",
          "type": "address"
        }
      ],
      "stateMutability": "view",
      "type": "function"
    }
  ],
  "bytecode": "0x60806040526200004f6040518060400160405280601c81526020017f57617665506f7274616c20627920436861692050686f6e626f706974000000008152506200007760201b620007031760201c565b606444426200005f9190620001c4565b6200006b919062000261565b60028190555062000308565b62000117816040516024016200008e919062000184565b6040516020818303038152906040527f41304fac000000000000000000000000000000000000000000000000000000007bffffffffffffffffffffffffffffffffffffffffffffffffffffffff19166020820180517bffffffffffffffffffffffffffffffffffffffffffffffffffffffff83818316178352505050506200011a60201b60201c565b50565b60008151905060006a636f6e736f6c652e6c6f679050602083016000808483855afa5050505050565b60006200015082620001a8565b6200015c8185620001b3565b93506200016e8185602086016200022b565b6200017981620002f7565b840191505092915050565b60006020820190508181036000830152620001a0818462000143565b905092915050565b600081519050919050565b600082825260208201905092915050565b6000620001d18262000221565b9150620001de8362000221565b9250827fffffffffffffffffffffffffffffffffffffffffffffffffffffffffffffffff0382111562000216576200021562000299565b5b828201905092915050565b6000819050919050565b60005b838110156200024b5780820151818401526020810190506200022e565b838111156200025b576000848401525b50505050565b60006200026e8262000221565b91506200027b8362000221565b9250826200028e576200028d620002c8565b5b828206905092915050565b7f4e487b7100000000000000000000000000000000000000000000000000000000600052601160045260246000fd5b7f4e487b7100000000000000000000000000000000000000000000000000000000600052601260045260246000fd5b6000601f19601f8301169050919050565b61130f80620003186000396000f3fe608060405234801561001057600080fd5b50600436106100575760003560e01c8063449d46c01461005c5780639a2cdc0814610078578063a42a466314610096578063a9b5b4b7146100c6578063bd43a908146100f6575b600080fd5b61007660048036038101906100719190610afa565b610114565b005b610080610510565b60405161008d9190610ef0565b60405180910390f35b6100b060048036038101906100ab9190610ad1565b61055b565b6040516100bd9190610ef0565b60405180910390f35b6100e060048036038101906100db9190610b3b565b610573565b6040516100ed9190610d8c565b60405180910390f35b6100fe6105b2565b60405161010b9190610da7565b60405180910390f35b42610258600360003373ffffffffffffffffffffffffffffffffffffffff1673ffffffffffffffffffffffffffffffffffffffff168152602001908152602001600020546101629190610fd2565b106101a2576040517f08c379a000000000000000000000000000000000000000000000000000000000815260040161019990610eb0565b60405180910390fd5b42600360003373ffffffffffffffffffffffffffffffffffffffff1673ffffffffffffffffffffffffffffffffffffffff1681526020019081526020016000208190555060016000808282546101f89190610fd2565b9250508190555061023f6040518060400160405280601681526020017f257320776176656420772f206d65737361676520257300000000000000000000815250338361079c565b600460405180606001604052803373ffffffffffffffffffffffffffffffffffffffff16815260200183815260200142815250908060018154018082558091505060019003906000526020600020906003020160009091909190915060008201518160000160006101000a81548173ffffffffffffffffffffffffffffffffffffffff021916908373ffffffffffffffffffffffffffffffffffffffff16021790555060208201518160010190805190602001906102fe92919061099c565b506040820151816002015550506064600254424461031c9190610fd2565b6103269190610fd2565b6103309190611109565b6002819055506103776040518060400160405280601681526020017f52616e646f6d20232067656e6572617465643a2025640000000000000000000081525060025461083b565b6032600254116104bd576103c06040518060400160405280600781526020017f257320776f6e2100000000000000000000000000000000000000000000000000815250336108d7565b6000655af3107a400090504781111561040e576040517f08c379a000000000000000000000000000000000000000000000000000000000815260040161040590610e90565b60405180910390fd5b60003373ffffffffffffffffffffffffffffffffffffffff168260405161043490610d77565b60006040518083038185875af1925050503d8060008114610471576040519150601f19603f3d011682016040523d82523d6000602084013e610476565b606091505b50509050806104ba576040517f08c379a00000000000000000000000000000000000000000000000000000000081526004016104b190610ed0565b60405180910390fd5b50505b3373ffffffffffffffffffffffffffffffffffffffff167f6728ef66814a55b797863bf8ffcd954b19cbca4ed4f0e6cf04c980705fd82c368242604051610505929190610e60565b60405180910390a250565b60006105536040518060400160405280601781526020017f5765206861766520256420746f74616c2077617665732100000000000000000081525060005461083b565b600054905090565b60036020528060005260406000206000915090505481565b6001818154811061058357600080fd5b906000526020600020016000915054906101000a900473ffffffffffffffffffffffffffffffffffffffff1681565b60606004805480602002602001604051908101604052809291908181526020016000905b828210156106fa57838290600052602060002090600302016040518060600160405290816000820160009054906101000a900473ffffffffffffffffffffffffffffffffffffffff1673ffffffffffffffffffffffffffffffffffffffff1673ffffffffffffffffffffffffffffffffffffffff16815260200160018201805461065f906110a6565b80601f016020809104026020016040519081016040528092919081815260200182805461068b906110a6565b80156106d85780601f106106ad576101008083540402835291602001916106d8565b820191906000526020600020905b8154815290600101906020018083116106bb57829003601f168201915b50505050508152602001600282015481525050815260200190600101906105d6565b50505050905090565b610799816040516024016107179190610dc9565b6040516020818303038152906040527f41304fac000000000000000000000000000000000000000000000000000000007bffffffffffffffffffffffffffffffffffffffffffffffffffffffff19166020820180517bffffffffffffffffffffffffffffffffffffffffffffffffffffffff8381831617835250505050610973565b50565b6108368383836040516024016107b493929190610e1b565b6040516020818303038152906040527fe0e9ad4f000000000000000000000000000000000000000000000000000000007bffffffffffffffffffffffffffffffffffffffffffffffffffffffff19166020820180517bffffffffffffffffffffffffffffffffffffffffffffffffffffffff8381831617835250505050610973565b505050565b6108d38282604051602401610851929190610e60565b6040516020818303038152906040527f9710a9d0000000000000000000000000000000000000000000000000000000007bffffffffffffffffffffffffffffffffffffffffffffffffffffffff19166020820180517bffffffffffffffffffffffffffffffffffffffffffffffffffffffff8381831617835250505050610973565b5050565b61096f82826040516024016108ed929190610deb565b6040516020818303038152906040527f319af333000000000000000000000000000000000000000000000000000000007bffffffffffffffffffffffffffffffffffffffffffffffffffffffff19166020820180517bffffffffffffffffffffffffffffffffffffffffffffffffffffffff8381831617835250505050610973565b5050565b60008151905060006a636f6e736f6c652e6c6f679050602083016000808483855afa5050505050565b8280546109a8906110a6565b90600052602060002090601f0160209004810192826109ca5760008555610a11565b82601f106109e357805160ff1916838001178555610a11565b82800160010185558215610a11579182015b82811115610a105782518255916020019190600101906109f5565b5b509050610a1e9190610a22565b5090565b5b80821115610a3b576000816000905550600101610a23565b5090565b6000610a52610a4d84610f30565b610f0b565b905082815260208101848484011115610a6a57600080fd5b610a75848285611064565b509392505050565b600081359050610a8c816112ab565b92915050565b600082601f830112610aa357600080fd5b8135610ab3848260208601610a3f565b91505092915050565b600081359050610acb816112c2565b92915050565b600060208284031215610ae357600080fd5b6000610af184828501610a7d565b91505092915050565b600060208284031215610b0c57600080fd5b600082013567ffffffffffffffff811115610b2657600080fd5b610b3284828501610a92565b91505092915050565b600060208284031215610b4d57600080fd5b6000610b5b84828501610abc565b91505092915050565b6000610b708383610d09565b905092915050565b610b8181611028565b82525050565b610b9081611028565b82525050565b6000610ba182610f71565b610bab8185610f94565b935083602082028501610bbd85610f61565b8060005b85811015610bf95784840389528151610bda8582610b64565b9450610be583610f87565b925060208a01995050600181019050610bc1565b50829750879550505050505092915050565b6000610c1682610f7c565b610c208185610fb0565b9350610c30818560208601611073565b610c39816111f6565b840191505092915050565b6000610c4f82610f7c565b610c598185610fc1565b9350610c69818560208601611073565b610c72816111f6565b840191505092915050565b6000610c8a600f83610fc1565b9150610c9582611207565b602082019050919050565b6000610cad601683610fc1565b9150610cb882611230565b602082019050919050565b6000610cd0600083610fa5565b9150610cdb82611259565b600082019050919050565b6000610cf3602c83610fc1565b9150610cfe8261125c565b604082019050919050565b6000606083016000830151610d216000860182610b78565b5060208301518482036020860152610d398282610c0b565b9150506040830151610d4e6040860182610d59565b508091505092915050565b610d628161105a565b82525050565b610d718161105a565b82525050565b6000610d8282610cc3565b9150819050919050565b6000602082019050610da16000830184610b87565b92915050565b60006020820190508181036000830152610dc18184610b96565b905092915050565b60006020820190508181036000830152610de38184610c44565b905092915050565b60006040820190508181036000830152610e058185610c44565b9050610e146020830184610b87565b9392505050565b60006060820190508181036000830152610e358186610c44565b9050610e446020830185610b87565b8181036040830152610e568184610c44565b9050949350505050565b60006040820190508181036000830152610e7a8185610c44565b9050610e896020830184610d68565b9392505050565b60006020820190508181036000830152610ea981610c7d565b9050919050565b60006020820190508181036000830152610ec981610ca0565b9050919050565b60006020820190508181036000830152610ee981610ce6565b9050919050565b6000602082019050610f056000830184610d68565b92915050565b6000610f15610f26565b9050610f2182826110d8565b919050565b6000604051905090565b600067ffffffffffffffff821115610f4b57610f4a6111c7565b5b610f54826111f6565b9050602081019050919050565b6000819050602082019050919050565b600081519050919050565b600081519050919050565b6000602082019050919050565b600082825260208201905092915050565b600081905092915050565b600082825260208201905092915050565b600082825260208201905092915050565b6000610fdd8261105a565b9150610fe88361105a565b9250827fffffffffffffffffffffffffffffffffffffffffffffffffffffffffffffffff0382111561101d5761101c61113a565b5b828201905092915050565b60006110338261103a565b9050919050565b600073ffffffffffffffffffffffffffffffffffffffff82169050919050565b6000819050919050565b82818337600083830152505050565b60005b83811015611091578082015181840152602081019050611076565b838111156110a0576000848401525b50505050565b600060028204905060018216806110be57607f821691505b602082108114156110d2576110d1611198565b5b50919050565b6110e1826111f6565b810181811067ffffffffffffffff82111715611100576110ff6111c7565b5b80604052505050565b60006111148261105a565b915061111f8361105a565b92508261112f5761112e611169565b5b828206905092915050565b7f4e487b7100000000000000000000000000000000000000000000000000000000600052601160045260246000fd5b7f4e487b7100000000000000000000000000000000000000000000000000000000600052601260045260246000fd5b7f4e487b7100000000000000000000000000000000000000000000000000000000600052602260045260246000fd5b7f4e487b7100000000000000000000000000000000000000000000000000000000600052604160045260246000fd5b6000601f19601f8301169050919050565b7f4f7574206f66206d6f6e6579203a290000000000000000000000000000000000600082015250565b7f506c656173652057616974696e6720666f722031306d00000000000000000000600082015250565b50565b7f4661696c656420746f207769746864726177206d6f6e65792066726f6d20746860008201527f697320636f6e74726163742e0000000000000000000000000000000000000000602082015250565b6112b481611028565b81146112bf57600080fd5b50565b6112cb8161105a565b81146112d657600080fd5b5056fea2646970667358221220eedee2f745e0b63ca748a1776f05ec7f4c9f9ecc072799202eae84c3c74749e964736f6c63430008040033",
  "linkReferences": {},
  "deployedLinkReferences": {}
}